:020000040800F2
:10000000E03D002029020008C90C0008490300084F
:10001000C50C0008ED030008A92A00080000000034
:100020000000000000000000000000002113000894
:100030000D0A000800000000970200087116000871
:10004000430200084302000843020008430200087C
:10005000430200084302000843020008430200086C
:1000600043020008C10A00084302000843020008D6
:10007000430200084302000843020008430200084C
:100080004302000811090008430200084302000867
:10009000ED04000843020008430200084302000880
:1000A000430200084302000843020008430200081C
:1000B000430200084302000843020008430200080C
:1000C000430200084302000843020008051100082B
:1000D00043020008430200082118000843020008F8
:1000E000110A000843020008430200084302000806
:1000F00043020008430200084302000843020008CC
:1001000043020008750F000843020008430200087C
:10011000A917000843020008430200084302000830
:10012000430200084302000843020008430200089B
:10013000430200084302000843020008430200088B
:100140002D0500084302000843020008590D00086D
:10015000430200084302000843020008430200086B
:10016000430200084302000843020008430200085B
:10017000430200084302000843020008430200084B
:10018000430200084302000800F002F800F03CF8C7
:100190000AA090E8000C82448344AAF10107DA45E2
:1001A00001D100F031F8AFF2090EBAE80F0013F0F8
:1001B000010F18BFFB1A43F001031847B8470000AE
:1001C000D8470000103A24BF78C878C1FAD852073F
:1001D00024BF30C830C144BF04680C6070470000C1
:1001E0000023002400250026103A28BF78C1FBD840
:1001F000520728BF30C148BF0B6070471FB504F0DD
:100200009DFA1FBD10B510BD00F0BEF81146FFF7F6
:10021000F5FF00F0E4F800F0DCF803B4FFF7F2FFBC
:1002200003BC02F005FD000009488047094800476B
:10023000FEE7FEE7FEE7FEE7FEE7FEE7FEE7FEE796
:10024000FEE7FEE704480549054A064B70470000F3
:100250004117000889010008E0370020E03D002038
:10026000E0390020E0390020EFF3108072B67047CB
:1002700080F310887047394A1368012B04D04FF07F
:1002800001031360364A1060364A116036484FF059
:10029000805101607047EFF3108272B62F480168F9
:1002A00021B34FF0000101602D48016891B1EFF3D7
:1002B00009811EF0100F08BF21ED108B21E9F00F0E
:1002C0004FF000041EF0100F08BF012441F8044D48
:1002D0000068016023490968096808C9B1E8F00F9E
:1002E000002B18BFB1EC108B81F3098882F31088C2
:1002F0004EF0100E002B18BF2EF0100E4EF0040E14
:10030000704718490860EFF3148222F0040282F368
:10031000148813494FF00000086010494FF00100A5
:10032000086012484FF47F01D0F8002041EA020132
:1003300001600D484FF0805101600D480068006871
:1003400080F3088862B67047EFF3098000B502F0C9
:10035000EBFF5DF804EB4EF0040E70473000002018
:10036000280000202C00002004ED00E020ED00E03B
:1003700008ED00E070477047704770477047000015
:1003800000487047803700207546FFF7F9FFAE46FA
:1003900005006946534620F00700854618B020B591
:1003A000FFF750FFBDE820404FF000064FF0000778
:1003B0004FF000084FF0000B21F00701AC46ACE80D
:1003C000C009ACE8C009ACE8C009ACE8C0098D467A
:1003D00070470446AFF300802046FFF71EFF10B5BC
:1003E000FFF742FF04F02CF9002010BD00BFFEE72C
:1003F0002DE9F0418AB004460D4616461F46DDF849
:1004000040800121022000F0B3FC0121480600F0E9
:10041000BFFC4FF44070089002208DF824000020AB
:100420008DF8260002208DF8250001208DF8270088
:1004300008A92C4800F0B0FB09220821294800F047
:10044000F3FB09221146274800F0EEFB00208DF84F
:100450001A008DF81B008DF81C0001208DF81D007E
:1004600000208DF81E008DF81F008DF816808DF885
:1004700017408DF818608DF81950ADF8147005A963
:10048000194800F000F900208DF80E008DF80F00DB
:1004900001208DF810000020ADF80400ADF8060032
:1004A000ADF80800ADF80A00ADF80C0001208DF899
:1004B000110001A800F05AF8012202210A4800F0B8
:1004C000D9F814208DF8000000208DF801008DF877
:1004D000020001208DF80300684600F0F7FB0AB027
:1004E000BDE8F081000402400064004010B586B011
:1004F000002401AA0021084800F04FF900BF07E0DE
:100500000DF10F00025D214604A003F023F8641CE6
:10051000082CF5DB06B010BD0064004072786275EF
:10052000665B25645D3A25640D0A000010B586B04F
:10053000002401AA0021084800F02FF900BF07E0BD
:100540000DF10F00025D214604A003F003F8641CC6
:10055000082CF5DB06B010BD0068004072786275AB
:10056000665B25645D3A25640D0A000010B5002124
:10057000837A012202FA03F13D4A126842F0010235
:100580003B4B1A603A4A1C3212688A43384B1C3380
:100590001A60027BCAB9364A0C3212688A43344B5D
:1005A0000C331A604288C38842EA0343304A40321F
:1005B000847A42F834300288838842EA03432C4A22
:1005C0004032847A02EBC4025360027B012A19D1C3
:1005D000274A0C3212680A43254B0C331A604288B2
:1005E000038842EA0343224A4032847A42F8343094
:1005F000C288838842EA03431D4A4032847A02EB70
:10060000C4025360C27A3AB9194A121D12688A4369
:10061000174B1B1D1A6006E0154A121D12680A438B
:10062000134B1B1D1A60028932B9114A1432126829
:100630008A430F4B14331A600289012A06D10C4AEF
:10064000143212680A430A4B14331A60427B012A9F
:1006500006D1074A1C3212680A43054B1C331A6044
:10066000034A126822F00102014B1A6010BD00001B
:10067000006600401AB143690B43436102E04369DD
:100680008B434361704730B5024600200023146855
:1006900024F002041460146844F00104146000E0C3
:1006A0005B1C546804F001041CB94FF6FF74A342AC
:1006B000F6D1546804F001040CB900206CE08C7988
:1006C000012C04D1146844F08004146003E0146821
:1006D00024F080041460CC79012C04D1146844F017
:1006E0004004146003E0146824F0400414600C7AA1
:1006F000012C04D1146844F02004146003E0146851
:1007000024F0200414604C7A012C04D1146844F0C5
:100710001004146003E0146824F0100414608C7A50
:10072000012C04D1146844F00804146003E0146838
:1007300024F008041460CC7A012C04D1146844F02D
:100740000404146003E0146824F0040414608C783A
:10075000A407CD7844EA05640D7944EA05444D794F
:1007600044EA05540D886D1E2C43D461146824F0AE
:1007700001041460002300E05B1C546804F00104D1
:100780001CB14FF6FF74A342F6D1546804F0010483
:100790000CB1002000E0012030BD10B500F5D87389
:1007A00003EB01131B6803F004031372137A53B9AC
:1007B00000F5D87303EB01131B6840F2FF7404EAE1
:1007C0005353136009E000F5D87303EB01131B6862
:1007D0006FF0604404EAD303536000F5D87303EB71
:1007E00001131B6803F00203537200F5D87303EB87
:1007F00001135B6803F00F03937200F5D87303EBEA
:1008000001135B681B0AD37400F5D87303EB011363
:100810009B68D37200F5D87303EB01139B681C0A25
:10082000147300F5D87303EB01139B681C0C54730D
:1008300000F5D87303EB01139B681B0E937300F54F
:10084000D87303EB0113DB68D37300F5D87303EBA4
:100850000113DB681C0A147400F5D87303EB011351
:10086000DB681C0C547400F5D87303EB0113DB68D0
:100870001B0E937421B9C36843F02003C36003E0E7
:10088000036943F02003036110BD000010B5024668
:10089000002006E013784340034CE05C521C4B1EE2
:1008A000D9B20029F6DC10BD6848000870B50446CE
:1008B00005E01648056805F0450000B100E0F8E7DE
:1008C00000BF042000F04AFB20B1042000F040FBF0
:1008D000032070BD012000F041FB20B1012000F099
:1008E00037FB0120F5E7094824380068A04201D011
:1008F0001020EEE740F2FF5000F02AFB03482038BA
:10090000006808210840C0B2E3E70000342C014031
:1009100010B502F0B7FD0B490B4800F043F868B181
:100920000849094800F014F80021074800F02AF8A7
:10093000012240F22661054800F0C7FF02F0B2FD37
:1009400010BD000000802020A06002400044004054
:100950000246094B9A4201D2084801E00648103885
:1009600001F000531BB1064B0B40C36002E0044B87
:100970000B4083607047000010640240006002403A
:100980007D0F7D0F21B1026842F00102026003E099
:10099000026822F00102026070470146486880B296
:1009A0007047000070B50246002000240025124E5A
:1009B000B24201D2114B01E00F4B103B104E0E40E2
:1009C00036B11E2606EAD124166806EA040502E0BE
:1009D000566906F0800501F000560EB15C6800E033
:1009E0001C68084E344004EA010616B10DB101201E
:1009F00000E0002070BD0000106402400060024072
:100A00003C0F3C0F7D0F7D0F416070477047000029
:100A100010B502F037FD4FF4804000F067F8D8B110
:100A20004FF48041224800F022F928B9214800788B
:100A300040F001001F4908704FF480411E4800F04B
:100A400016F928B91B48007840F0040019490870CD
:100A50004FF4804000F044F84FF4004000F046F8B6
:100A6000D8B14FF40041124800F001F928B91148FB
:100A7000007840F002000F4908704FF400410E4822
:100A800000F0F5F828B90B48007840F00800094953
:100A900008704FF4004000F023F802F003FD054811
:100AA0000078002802DD054802F0D9FF10BD0000E3
:100AB00000140240E8000020000402403436002008
:100AC00010B500240A2C00D10024601CC4B2002000
:100AD00002490860082000F003F810BDA802434254
:100AE0000149086070470000143C014001460020A5
:100AF000034A12680A400AB1012000E00020704752
:100B0000143C0140002123498279002A3AD00A4648
:100B1000126803689A430B461A600A1D126803683C
:100B20009A430B1D1A60027911440A6803681A433C
:100B30000A60184A0832126803689A43154B083352
:100B40001A601A1D126803689A43124B0C331A601C
:100B50004279102A0ED11A1F126803681A430D4BEE
:100B600008331A601A1D126803681A43094B0C33C4
:100B70001A600DE00749427911440A6803681A4374
:100B80000A6005E0027911440A6803689A430A6022
:100B900070470000003C0140F0B50A4600210023E8
:100BA000002400BF3DE0012505FA01F3156805EAC0
:100BB00003049C4234D105684F000326BE40B54370
:100BC000056015794E00B540066835430560157916
:100BD000012D02D01579022D16D185684F0003260C
:100BE000BE40B543856055794E00B54086683543B3
:100BF0008560456801268E40B54345604568967915
:100C00008E40B6B235434560C5684F000326BE40EE
:100C1000B543C560D5794E00B540C6683543C5605B
:100C2000491C1029BFD3F0BDF0B5002300244D07A7
:100C3000ED0E02FA05F3CE1000F1200555F826500E
:100C40004E07F70E0F26BE40B543CF1000F1200629
:100C500046F82750CE1000F1200555F8265045EAF9
:100C60000304CE1000F1200545F82640F0BD0246F1
:100C7000002013690B400BB1012000E000207047F9
:100C8000018370471CB50121402000F071F84FF43A
:100C9000F840009001208DF8040000208DF8060037
:100CA0008DF8050001208DF8070069460448FFF71C
:100CB00073FF4FF4F8410248FFF7E2FF1CBD00004C
:100CC0000018024000BFFEE77047000070B5002129
:100CD00000230F22C4781CB3174C246804F4E0648A
:100CE000C4F5E064C4F30721C1F10404E3B20A418E
:100CF00044789C40E1B28478144021430C07210ED3
:100D00000E4C05786155047804F01F050124AC40B1
:100D100005786D11AD0005F1E025C5F8004109E049
:100D2000047804F01F050124AC40054D06787611C7
:100D300045F8264070BD00000CED00E000E400E046
:100D400080E100E002490143024A1160704700005F
:100D50000000FA050CED00E010B502F093FB03482B
:100D600000F052FE02F09EFB10BD0000A00A002021
:100D700029B1064A12680243044B1A6004E0034A90
:100D800012688243014B1A607047000030380240FD
:100D900029B1064A12680243044B1A6004E0034A70
:100DA00012688243014B1A607047000040380240CD
:100DB00029B1064A12680243044B1A6004E0034A50
:100DC00012688243014B1A607047000044380240A9
:100DD000F0B5002100220024022500260223324F14
:100DE0003F6807F00C0121B1042905D0082937D14B
:100DF00005E02E4F076036E02D4F076033E02A4FA5
:100E00003F1F3F68C7F38056274F3F1F3F6807F0DB
:100E10003F036EB1264FB7FBF3F7DFF88CC0ACF1A0
:100E2000040CDCF800C0CCF3881C07FB0CF40CE0CD
:100E30001E4FB7FBF3F7DFF870C0ACF1040CDCF821
:100E400000C0CCF3881C07FB0CF4174F3F1F3F6812
:100E5000C7F301477F1C7D00B4FBF5F7076002E094
:100E6000124F076000BF00BF0F4F3F6807F0F0014F
:100E70000909104F7A5C0768D74047600A4F3F68FE
:100E800007F4E051890A0B4F7A5C4768D7408760C6
:100E9000054F3F6807F46041490B064F7A5C47688D
:100EA000D740C760F0BD0000083802400024F400BD
:100EB00000127A001400002070B50546002440F2AC
:100EC0002441144800F0D7FC08B3124800881148A8
:100ED000001D008800211048FFF754FD0F490E48FF
:100EE000FFF736FD0C48FFF758FDC0F1400084B213
:100EF00022460B49284602F043FC40210648FFF7F2
:100F000083FD01210448FFF73DFDE0B270BD0020E4
:100F1000FCE7000000440040886002400008002018
:100F20005436002010B540F22661074800F096FCC8
:100F300040B9002240F22661034800F0C6FC0020C0
:100F40000249087010BD000000440040E900002084
:100F50000149086070470000382C0140014600201C
:100F6000034A12680A400AB1012000E000207047DD
:100F7000342C014010B502F085FA00F019F802F0A7
:100F800091FA10BD0021094B02681A601A1D116800
:100F90006FF30A01D0E901231A43C3681A430369B6
:100FA0001A431143014A121D11607047082C014079
:100FB00010B54FF48070FFF7D1FF78B34C4800783C
:100FC000012814D100204B4908600C2048604020C3
:100FD00088600020C8604FF4806008610846FFF711
:100FE000D1FF0C20FFF762FC4349087002E00020AB
:100FF000414908704148006840F480703F490860EA
:10100000081D00684CF23A3188433C49091D0860CC
:1010100001203B4908703848007810BDFFE70220E6
:10102000FFF79CFF78B10220FFF792FF3348001DC5
:1010300000684CF23A3188433049091D08600220AB
:101040002D490870E9E70820FFF788FF78B10820EC
:10105000FFF77EFF2948001D00684CF23A318843B3
:101060002649091D0860042023490870D5E720207F
:10107000FFF774FF78B12020FFF76AFF1F48001DBB
:1010800000684CF23A3188431C49091D086006206B
:1010900019490870C1E71020FFF760FF78B11020F0
:1010A000FFF756FF1548001D00684CF23A3188439F
:1010B0001249091D086005200F490870ADE74FF47B
:1010C0000070FFF74BFF80B14FF40070FFF740FF57
:1010D0000A48001D00684CF23A3188430749091D4F
:1010E000086007200449087097E7002095E7000092
:1010F000D900002078330020DA000020382C01408D
:10110000DB00002010B502F0BDF901216D4800F0B0
:10111000FBF801287DD16C48007898B900206B4914
:10112000087001206849087066488089684908701D
:1011300008460078022802D1664800F099F900209C
:1011400065490870604800780128E3D1604800785C
:1011500014287DD014DC05286FD008DC012822D0AB
:10116000022845D003285CD004287DD11FE0102838
:101170006AD0112869D0122868D01328F5D166E00A
:1011800032286AD008DC152863D0202862D03028A5
:1011900061D03128E9D15FE033285FD034285ED0B8
:1011A0003528E2D15CE001204C49087000BF0120E5
:1011B0004B49087043488089C1B24448027800789E
:1011C000401C424B18704748815418460078401E16
:1011D000444A115C44A002F0BDF93C4800780D2857
:1011E00002DB002038490870FF203649888164E01E
:1011F00000F02EF9384800781C280BDA36480178C0
:101200000078401C344A10703248405C2D49888177
:1012100006E053E0FF202B49888100202A4908700E
:101220004BE0012031490870FF20264988810020C9
:101230002549087041E00BE0FFE7002022490870D3
:1012400055202B49087038E000BF00BF00BF00BF29
:1012500000BF00BF00BF00BF00BF00BF00BF00BF96
:1012600001202449087000E020E016488089C1B2BE
:10127000164802780078401C144B18701E488154A0
:1012800018460078401E1C4A115C1CA002F062F94E
:101290000E480078262805DB1AA002F05BF9002032
:1012A00009490870FF200749888106E0FF200549A9
:1012B000888100200449087000BF00BF02F0F2F8E6
:1012C00010BD000000300140EC000020EB000020C9
:1012D000ED00002047370020F2000020EE00002043
:1012E000EF0000201437002025640A00F0000020E1
:1012F000F4000020F1000020213700202564202088
:10130000000000000A0000000246002013890B4084
:101310000BB1012000E0002070470146888970472A
:101320007047000030B500228B071C0F0F2303FA13
:1013300004F20B4B8C1053F824309343084C8D105F
:1013400044F8253023468C1053F824308C07240FA2
:1013500000FA04F42343024C8D1044F8253030BDCC
:10136000083801400CB50020019000903448006816
:1013700040F480303249086000BF3148006800F412
:10138000003000900198401C0190009818B9019815
:10139000B0F5A04FF1D12A48006800F4003010B138
:1013A0000120009001E0002000900098012846D123
:1013B00023484030006840F08050214940310860A7
:1013C0002048006840F440401E4908601C4808302E
:1013D00000681B49083108600846006840F4004076
:1013E00008600846006840F4A05008601648091FCD
:1013F0000860081F006840F08070091F086000BF87
:101400000F48006800F000700028F9D040F2057025
:101410000E4908600A480830006820F003000849B7
:10142000083108600846006840F00200086000BF0C
:1014300003480830006800F00C000828F8D10CBD03
:10144000003802400070004008544007003C024051
:1014500010B500BF01210548FFF756FF0028F9D05D
:101460000248FFF75AFFC0B210BD00000030014033
:1014700070B50546002402222146641C6A541C22D1
:101480002146641C6A547848408902122146641C33
:101490006A547548827A2146641C6A54C068020EF8
:1014A0002146641C6A547048C068C0F30742214654
:1014B000641C6A546C488089C0F307222146641C6E
:1014C0006A546948027B2046611CCCB22A546648A3
:1014D00002782046611CCCB22A54634842782046E8
:1014E000611CCCB22A54604882782046611CCCB280
:1014F0002A545D48C2782046611CCCB22A545A480E
:1015000002792046611CCCB22A54574890ED040A57
:10151000DFED560A20EE200ABCEEC00A10EE100ADB
:10152000020E2046611CCCB22A544F4890ED040AAA
:10153000DFED4E0A20EE200ABCEEC00A10EE100AC3
:10154000C0F307422046611CCCB22A54464890EDB5
:10155000040ADFED460A20EE200ABCEEC00A10EEB7
:10156000100AC0F307222046611CCCB22A543E4820
:1015700090ED040ADFED3D0A20EE200ABCEEC00A21
:1015800010EE100AC2B22046611CCCB22A54364872
:1015900042792046611CCCB22A54334890ED050AAA
:1015A000DFED320A20EE200ABCEEC00A10EE100A6F
:1015B000020E2046611CCCB22A542B4890ED050A3D
:1015C000DFED2A0A20EE200ABCEEC00A10EE100A57
:1015D000C0F307422046611CCCB22A54224890ED49
:1015E000050ADFED220A20EE200ABCEEC00A10EE4A
:1015F000100AC0F307222046611CCCB22A541A48B4
:1016000090ED050ADFED190A20EE200ABCEEC00AB3
:1016100010EE100AC2B22046611CCCB22A54124805
:1016200082792046611CCCB22A540F48C2792046E8
:10163000611CCCB22A540C48027A2046611CCCB200
:101640002A540948427A2046611CCCB22A542146C9
:101650002846FFF71BF92855EE21601CC0B204464E
:101660002954601CC0B270BD6837002000007A4465
:1016700010B501F007FF02F01BFD01F013FF10BDD4
:1016800070B500200022022300240221274D2D687E
:1016900005F00C0020B1042806D0082834D107E05A
:1016A000234D244E356033E0234D224E35602FE02C
:1016B0001E4D2D1F2D68C5F380541C4D2D1F2D6808
:1016C00005F03F0154B11C4DB5FBF1F5174E361F27
:1016D0003668C6F3881605FB06F209E0144DB5FB23
:1016E000F1F5124E361F3668C6F3881605FB06F272
:1016F0000E4D2D1F2D68C5F301456D1C6B00B2FB0F
:10170000F3F50C4E356003E0094D0A4E356000BF1D
:1017100000BF064D2D68C5F30315084E705D054DDD
:101720002D68C540034E356070BD0000083802408A
:101730000024F4000000002000127A0004000020C1
:1017400010B51548006840F470001349086013484C
:10175000006840F001001149086000200F4908317D
:1017600008600E4800680E4908400C4908600D48A2
:10177000091D0860081F006820F48020091F086008
:10178000002006490C310860FFF7ECFD4FF00060C7
:1017900001498039086010BD88ED00E00038024042
:1017A000FFFFF6FE1030002410B501F06BFE40F292
:1017B0002551174800F05FF830B31548001D008828
:1017C000C4B21448008800F40040E8B91148018808
:1017D0000088401C0F4A10800A2904DA0E4811467E
:1017E0000988445410E00B48008840F4004009493F
:1017F000088007480C30008820F0040004490C31B0
:10180000088001200549087001F04CFE10BD000061
:10181000004C0040E000002020360020E2000020C4
:1018200010B501F02FFEFFF77DFB0448FFF744FBE6
:101830000349087001F036FE10BD00009436002008
:10184000EA00002021B1828942F40052828104E042
:1018500082894DF6FF731A4082817047024600204C
:10186000B1F5007F00D100BF13880B400BB1012000
:1018700000E00020704770B50246002400230025D8
:10188000002040F66A16B14200D100BFC1F34215F4
:1018900001F01F03012606FA03F3012D02D19689F8
:1018A000334006E0022D02D1168A334001E0968AC9
:1018B00033400C12012606FA04F41688344013B1A2
:1018C0000CB1012000E0002070BDF0B503460024FB
:1018D00000260025002040F66A17B94200D100BF5B
:1018E0001846C1F3421401F01F06012707FA06F556
:1018F000012C01D10C3004E0022C01D1103000E0A9
:1019000014301AB107682F43076002E00768AF433D
:101910000760F0BD2DE9FF4705460E460024A146AD
:1019200000BFA046B08900B100BF2C8A24F4405407
:10193000F08804432C82AC8941F20C608443B08867
:1019400031890843718908430443AC81AC8A24F48B
:101950004074B0890443AC826846FFF739FA2048E6
:10196000854202D01F48854202D1DDF80C9001E08B
:10197000DDF80890A88900F4004040B109EBC900E7
:1019800000EB091031684900B0FBF1F707E009EB03
:10199000C90000EB091031688900B0FBF1F7642041
:1019A000B7FBF0F004012009642101FB1078A8893D
:1019B00000F4004040B1322000EBC800B0FBF1F071
:1019C00000F00700044308E0322000EB0810642117
:1019D000B0FBF1F000F00F0004432C81BDE8FF875D
:1019E0000010014000140140C1F3080282807047DA
:1019F00001460122C1F81023002070470146002251
:101A0000C1F810230020704738B505460024002097
:101A10000090284600F0DDF8002847D0284600F066
:101A2000E2F80090009808B9002038BD0098C0F393
:101A3000C00018B1284601F001F804430098C0F333
:101A4000001018B1284600F046FF04430098C0F388
:101A5000401018B1284600F080FD04430098C0F300
:101A6000806018B1284600F09FFE04430098C0F340
:101A7000406018B1284600F048F904430098C0F3CC
:101A8000006018B1284600F0FFFD04430098C0F341
:101A9000407018B1284600F0FFF804430098C0F3E6
:101AA000405018B1284600F00DF904432046BCE729
:101AB00001460020704770B50446002500BF05E0D0
:101AC0004FF47A7001F02AF9681C85B2A542F7D369
:101AD00070BD0146C868406900F0010070471CB540
:101AE0000246002000230093009B23F0004303F1F3
:101AF000004300930124009B64F3DC43009302F154
:101B0000900353F82130009C1C6102F1900353F8BC
:101B100021301B680193019B23F0004303F1004334
:101B20000193019B23F08043019302F1900353F84A
:101B30002130019C1C601CBD10B586B002460020FF
:101B400000230393019302F1900353F821301B68A3
:101B50000093009B23F0004303F100430093009B9C
:101B600023F0804303F180430093009BC3F3814340
:101B700023B1009BC3F38143022B0BD1D368DB6AF3
:101B80000393039BC3F307437BB9009B23F00043FC
:101B900000930AE053691B690193019BC3F3074358
:101BA0001BB9009B23F00043009302F1900353F80C
:101BB0002130009C1C6006B010BD08B54269126857
:101BC0000092009A61F301020092009B4269136047
:101BD00008BD00B502461046FFF77BFF012800D183
:101BE00000BD0020FCE701460020CA685069CA68B1
:101BF00092691040704708B50146D1F8CC000068E2
:101C00000090009820F004000090009820F002005E
:101C10000090009820F008000090009820F020002C
:101C20000090009808BD0146486940697047F0B5CA
:101C300003460024D01CC71700EB9777BD10D3F8DC
:101C4000D06000BF03E030680860641C091DAC422E
:101C5000F9D30846F0BD38B504462046FFF7CBFF60
:101C60000090009820F4807000F58070009000993A
:101C7000D4F8CC0001600A20FFF71DFF009820F483
:101C8000807000900099D4F8CC0001601420FFF718
:101C900012FF012038BD000038B504460020009036
:101CA00007480068816820468847009820F0005067
:101CB00000F1005000900098E1684861012038BDB3
:101CC000040100200CB50146D1F890000068009096
:101CD000009820F0004000F100400090009820F0B3
:101CE000804000F180400090009AD1F8900002609E
:101CF00000200190019820F4001000F500100190E0
:101D00000198CA68506101200CBD7CB505460024CD
:101D100000262846FFF787FF019000BF1BE00198CF
:101D200080B20121A1400840A0B105F1900050F817
:101D30002400006800900098C0F3C03028B121460C
:101D4000284600F00DF8064304E02146284600F03E
:101D50001CFA0643641C2878A042E0D830467CBDBB
:101D600070B586B005460C4605F1900050F8246029
:101D7000B0680590F0680490DDE904100840059013
:101D800005F1900050F824000068039000200490B2
:101D90000598C0F38000D0B100200190019820F098
:101DA0000400001D01900198B06005F1900050F80A
:101DB0002400C0680190019820F00200801C01906E
:101DC00005F1900050F824000199C16073E0059876
:101DD000C0F3401048B100200190019820F020008D
:101DE000203001900198B06065E00598C0F3C00014
:101DF00078B305F1900050F82400C0680190019874
:101E000020F00200801C019005F1900050F82400A1
:101E10000199C160052105F563700155002001900D
:101E2000019820F01000103001900198B06000205F
:101E30000190019820F00800083001900198B060EE
:101E4000059820F010000590E1B22846FFF774FED7
:101E500031E0FFE70598C0F3802060B305F1900002
:101E600050F82400C0680190019820F00200801C06
:101E7000019005F1900050F824000199C160E1B291
:101E80002846FFF759FE00200190019820F010002D
:101E9000103001900198B060082105F5637001557C
:101EA00000200190019820F4806000F5806001908E
:101EB0000198B06000BF0598C0F34020F8B105F16B
:101EC000900050F82400C0680190019820F00200B2
:101ED000801C019005F1900050F824000199C16028
:101EE000E1B22846FFF728FE00200190019820F477
:101EF000007000F5007001900198B06042E1059813
:101F000000F00100002871D0E878012812D105F115
:101F1000900050F824000069029005F56B7000EB0A
:101F2000441000690299C1F31201411A05F5547079
:101F300040F82410012105F563700155002178381F
:101F400040F8241000200190019820F00100401C6E
:101F500001900198B0600398C0F3814020B10398CC
:101F6000C0F3814002282AD105F1900050F82400E6
:101F7000C0680190019820F00200801C019005F1DA
:101F8000900050F824000199C160E1B22846FFF7A3
:101F9000D3FD00200190019820F010001030019036
:101FA0000198B06005F56B7000EB4410007E80F086
:101FB000010105F56B7000EB44100176E2E0039837
:101FC000C0F38140032899D1039820F0005000F11C
:101FD0000050039005F1900050F82400039901602F
:101FE000012105F29B300155CCE0FFE70598C0F3D5
:101FF0004000002851D005F1900050F82400C0683E
:102000000190019820F00200019005F1900050F835
:1020100024000199C16005F56370005D012804D1B9
:10202000012105F29B3001552DE005F56370005D3F
:10203000052804D1042105F29B30015523E005F564
:102040006370005D062804D005F56370005D082804
:1020500008D1002105F5457040F824100321873090
:10206000015510E00398C0F3814003280BD105F51A
:102070006B7000EB4410007E80F0010105F56B7081
:1020800000EB4410017600200190019820F002003E
:10209000801C01900198B06074E00598C0F3C010F6
:1020A00040B305F1900050F82400C06801900198F9
:1020B00020F00200801C019005F1900050F82400EF
:1020C0000199C16005F5457050F82410491C40F88D
:1020D0002410062178300155E1B22846FFF72CFD87
:1020E00000200190019820F080008030019001983C
:1020F000B06047E00598C0F30010E8B30398C0F360
:102100008140032815D105F1900050F82400C068E3
:102110000190019820F00200801C019005F19000D0
:1021200050F824000199C160E1B22846FFF704FD90
:1021300018E00398C0F3814020B10398C0F38140B8
:1021400002280FD1039820F0004000F100400390D6
:10215000039820F08040039005F1900050F824008F
:1021600003990160032105F563700155002001907A
:10217000019820F0100000E004E010300190019878
:10218000B06000BF012006B070BD7FB505460C46AB
:1021900005F1900050F82460B0680390F068029058
:1021A000DDE902100840039005F1900050F824008A
:1021B000006801900398C0F38000D0B10020009027
:1021C000009820F00400001D00900098B06005F118
:1021D000900050F82400C0680090009820F00200A1
:1021E000801C009005F1900050F824000099C16017
:1021F000B0E10398C0F3401048B10020009000986F
:1022000020F02000203000900098B060A2E10398F8
:10221000C0F34020F8B105F1900050F82400C068E8
:102220000090009820F00200801C009005F19000C2
:1022300050F824000099C160E1B22846FFF77CFC09
:1022400000200090009820F4007000F500700090CD
:102250000098B0607EE1039800F0010038B30021DF
:1022600005F5457040F8241005F1900050F8240061
:10227000C0680090009820F00200801C009005F1DA
:10228000900050F824000099C160E1B22846FFF7A1
:1022900053FC00200090009820F00100401C0090AA
:1022A0000098B060012105F56370015552E1039873
:1022B000C0F3C00010B300200090009820F0080088
:1022C000083000900098B06005F1900050F82400AC
:1022D000C0680090009820F00200801C009005F17A
:1022E000900050F824000099C160E1B22846FFF741
:1022F00023FC052105F5637001552BE10398C0F31C
:10230000001038B3002105F5457040F8241005F1A0
:10231000900050F82400C0680090009820F002005F
:10232000801C009005F1900050F824000099C160D5
:10233000E1B22846FFF700FC00200090009820F052
:102340001000103000900098B060032105F5637014
:102350000155FFE00398C0F3C01040B305F19000B1
:1023600050F82400C0680090009820F00200801C03
:10237000009005F1900050F824000099C160E1B28E
:102380002846FFF7D9FB05F5457050F82410491C85
:1023900040F8241006217830015500200090009864
:1023A00020F08000803000900098B060D2E0039868
:1023B000C0F3801038B3002105F5457040F82410B3
:1023C00005F1900050F82400C0680090009820F0BB
:1023D0000200801C009005F1900050F82400009944
:1023E000C160E1B22846FFF7A7FB002000900098EB
:1023F00020F04000403000900098B060042105F5C6
:1024000063700155A6E00398C0F3802060B305F126
:10241000900050F82400C0680090009820F002005E
:10242000801C009005F1900050F824000099C160D4
:10243000E1B22846FFF780FB00200090009820F0D2
:102440001000103000900098B060082105F563700E
:10245000015500200090009820F4806000F5806015
:1024600000900098B06075E00398C0F34000002829
:1024700070D005F1900050F82400C06800900098DA
:1024800020F00200009005F1900050F8240000991F
:10249000C16005F56370005D012815D1012105F2C9
:1024A0009B3001550198C0F38140022848D105F5C1
:1024B0006B7000EB4410407E80F0010105F56B70FD
:1024C00000EB441041763BE005F56370005D0328A6
:1024D00004D1022105F29B30015531E005F563700E
:1024E000005D04280FD105F56B7000EB44100079F6
:1024F000012803D1E1B22846FFF7F1FA022105F2E3
:102500009B3001551CE005F56370005D052804D182
:10251000042105F29B30015512E005F56370005D62
:1025200006280DD105F5457050F82400032807D181
:10253000032105F29B3001550021873840F8241013
:1025400000200090009820F00200801C009000986D
:10255000B06000BF012004B070BD7FB50446E068E4
:10256000C06A00900198C0F3C30104F56B7000EBE2
:1025700041100069C01CC0F38F0673E04FF6FF7175
:10258000009801EA80050198C0F3C30104F56B705F
:1025900000EB41100069A84215D20198C0F3C301B5
:1025A00004F56B7000EB4110008A85B200200390A7
:1025B000039820F0200020300390E06880690399A0
:1025C0008843E16888610198C0F3C30104F56B702A
:1025D00000EB41100069C01CC0F38F060198C0F3E6
:1025E000C302C0F3C30304F56B7000EB43102B462A
:1025F000C168204600F038FA0198C0F3C30104F521
:102600006B7000EB4110C06841190198C0F3C30220
:1026100004F56B7000EB4210C1600198C0F3C30178
:1026200004F56B7000EB41100069411B0198C0F389
:10263000C30204F56B7000EB421001610198C0F316
:10264000C30104F56B7000EB41104069411901981A
:10265000C0F3C30204F56B7000EB42104161E06807
:10266000C06A0090009880B2B0420ADD0198C0F3C1
:10267000C30104F56B7000EB4110006900287FF482
:102680007DAF012004B070BDFEB5044600260025D4
:102690000020009002900190D4F8CC0000680290D5
:1026A000D4F8CC0000680190019820F0040001905B
:1026B000019820F002000190019820F0080001909C
:1026C000019820F0200001900298C0F3400058B11A
:1026D000019820F00200801C019032480068416897
:1026E0002046884745F001050298C0F3C000002845
:1026F00042D0019820F00800083001900298C0F301
:102700008000002838D02748006841682046884764
:102710000298C0F34140022804D00298C0F341401F
:10272000012828D16069006800900298C0F34140F8
:10273000022811D141F2707160694160009800F087
:102740000300022818D0207A022803D10221204653
:10275000FFF733FA01260FE04BF6803160694160E4
:10276000009800F00300012806D001212046FFF761
:1027700024FA012600E001260298C0F3401030B18F
:10278000019820F020002030019045F0010516B19D
:102790002046FFF760FA0199D4F8CC000160284682
:1027A000FEBD000004010020FEB50446606900691A
:1027B00000900198C0F3C30104F56B7000EB411069
:1027C0000069C01CC0F38F0674E04FF6FF710098DB
:1027D00001EA80050198C0F3C30104F56B7000EBBA
:1027E00041100069A84216D20198C0F3C30104F554
:1027F0006B7000EB4110008A85B2002002900298B5
:1028000020F0806000F180600290E06880690299A9
:102810008843E16888610198C0F3C30104F56B70D7
:1028200000EB41100069C01CC0F38F060198C0F393
:10283000C302C0F3C30304F56B7000EB43102B46D7
:10284000C168204600F010F90198C0F3C30104F5F7
:102850006B7000EB4110C06841190198C0F3C302CE
:1028600004F56B7000EB4210C1600198C0F3C30126
:1028700004F56B7000EB41100069411B0198C0F337
:10288000C30204F56B7000EB421001610198C0F3C4
:10289000C30104F56B7000EB4110406941190198C8
:1028A000C0F3C30204F56B7000EB42104161606934
:1028B00000690090009880B2B0420ADD0198C0F330
:1028C000C30104F56B7000EB4110006900287FF430
:1028D0007CAF0120FEBD30B585B0044600200090DD
:1028E0000390039820F0100010300390E068806996
:1028F00003998843E1688861E068006A049004985D
:1029000000F00F00009004F190009DF8001050F8C6
:102910002100006801900498C0F34340022806D0CB
:10292000032878D0052877D0072873D175E004985C
:10293000C0F30A10002869DD04F56B709DF80010E3
:1029400000EB4110C068002860D00498C0F30A1260
:1029500004F56B709DF8003000EB4310C168204611
:10296000FFF765F9049800F00F0104F56B7000EBB8
:102970004110C0680499C1F30A110144049800F0A1
:102980000F0204F56B7000EB4210C160049800F078
:102990000F0104F56B7000EB411040690499C1F31D
:1029A0000A110144049800F00F0204F56B7000EB6B
:1029B0004210416104F56B709DF8001000EB41106E
:1029C000456904F554709DF8001040F8215004F159
:1029D00090009DF8001050F82100006902900298C4
:1029E000C0F3C940002811DD019820F0004000F13B
:1029F00000400190019820F08040019004F1900087
:102A00009DF80020019950F82200016006E002E0E4
:102A100002E0FFE700BF00BF00BF00BF00BF039898
:102A200020F0100010300390E0688069039908439B
:102A3000E1688861012005B030BD000038B504466A
:102A400000200090074800680168204688470098E9
:102A500020F00800083000900098E16848610120EB
:102A600038BD0000040100202DE9F0410446002695
:102A7000E078B0B900270020DD1C4FEAE57805EBCF
:102A800098784FEAA80704F1D00555F822C000BF96
:102A900004E00D68CCF80050401C091DB842F8D382
:102AA00000BF3046BDE8F08100BFFEE70146481E8A
:102AB000B0F1807F01D301207047481E4FF0E02223
:102AC0005061FF20044A107000204FF0E022906116
:102AD000072010610020EFE723ED00E0014609B96F
:102AE00000207047C8B220B1C8B20E4A105C401C2A
:102AF000F7E701F47F4028B10A48C1F30722805C60
:102B00000930EEE701F47F0028B10648C1F307421F
:102B1000805C1130E5E7034800EB11600078193064
:102B2000DFE700004647000803490868884201D0F3
:102B3000012070470020FCE7B40000202DE9FC5F75
:102B400004468B4615461E46DDE90C9ADDE90E78F3
:102B500004F114004060006000BF1C346560A66092
:102B6000C4F80C90A4F810A0228A2321E06800F099
:102B700045FEB4F810C0E36863441A1F0E4BD4E955
:102B8000010100F057FC2060A7766776C4F8288022
:102B9000C4F82C80002060612076E06520661C3C33
:102BA00000902346054A2146019004F14C0001F0B3
:102BB00001FB0020BDE8FC9FF53D00082340000814
:102BC0002DE9F04704460E4617469846DDF820905A
:102BD00084F80990607A20F001006072E661276253
:102BE0000020A062C4F82480002506E004F114014E
:102BF00001EBC50000F0CCFC6D1C012DF6DBBDE83F
:102C0000F08710B50246002001460EE002F11403E1
:102C100003EBC100D0E900436360D0E900342360D6
:102C20004060006000BF481C01460129EEDB10BD7A
:102C300000BF7047054800680549B0FBF1F0054941
:102C4000088002200449088070470000000000202E
:102C500040420F00C8000020CA0000202DE9F041CA
:102C600004464FF0E02040694FF0E0218969471A9F
:102C7000002500262148007878B32148007860BB01
:102C800020480088844229DB1E48008894FBF0F02D
:102C900085B21C48008894FBF0F100FB114084B21F
:102CA00019480088B7FBF0F004EB4401C1EBC411F4
:102CB00000EBC1061348008800EB4001C1EBC010D7
:102CC000B6EBC00F0FD9681C85B20E48008800EB28
:102CD0004001C1EBC010A6EBC00604E000254FF494
:102CE0007A7004FB00F61DB1284601F07CF800E084
:102CF00000BF304600F012F8BDE8F081CC000020A3
:102D000038000020CA000020C800002010B500F0E4
:102D100047FA10BD10B500F053FA10BD2DE9F04789
:102D2000074600264FF0E020D0F8149010480088A5
:102D300007FB00F8FFF7EAFF4FF0E020856911E09C
:102D40004FF0E0208469AC420CD0AC4202D2281B88
:102D5000064403E0A9EB0400284406442546464502
:102D600000D300E0ECE700BFFFF7D4FFBDE8F08739
:102D7000C800002000B585B001218803FEF718F8CF
:102D800001210820FDF7F4FF03210846FEF7CAFAE7
:102D90000820039000208DF810008DF811008DF8A8
:102DA000120001208DF8130003A91048FDF7F4FE6E
:102DB0000820019000208DF8080008208DF80900F7
:102DC00001208DF80A0001A8FDF79CFE09208DF86E
:102DD000000000208DF801008DF8020001208DF820
:102DE00003006846FDF772FF05B000BD000C02400D
:102DF0000FE04FF47A70FFF731FF4FF47A70FFF76E
:102E00002DFF0448006808B9012000E000200149B6
:102E10000860EEE7B80243421CB50EA103C9CDE934
:102E2000000116E04FF47A70FFF718FF4FF47A7044
:102E3000FFF714FF0120094908604FF47A70FFF78B
:102E40000DFF4FF47A70FFF709FF01200449C1F824
:102E5000A802E7E70905010705030406A8024342A3
:102E6000000043427FB5FDF7FFF905460024FDF75A
:102E700009FF00202049086000BF05E04FF47A7088
:102E8000FFF74CFF601C84B2B4F57A7FF6DB0120BB
:102E90001949086006231A46052100900020FDF715
:102EA000A7FAFFF767FF2846FDF7E2F9142005218E
:102EB0004FF48062114BCDE90032CDE902100023BE
:102EC0000F4A10A1114801F01DF8104801F078F8E0
:102ED000142004210A020E4BCDE90032CDE9021084
:102EE00000230C4A0CA10E4801F00CF80C4801F02C
:102EF00067F8002004B070BDA80243420C02002015
:102F0000F12D00086C656430000000000C01002009
:102F10000C060020192E00086C65643100000000CA
:102F20008C01002010B5044600F02CF9FFF79AFF41
:102F300010BD000030B51A4C436824681919884246
:102F400015D04B889BB9174B1B6899420FD0164B75
:102F50001B688B4201D1144B18604B684360104BC7
:102F60001B68C31A0E4D4C682D682C44A3600C4C92
:102F7000836824681A19824211D053887BB90A4B9E
:102F80001B68834201D1084B1A6043685360044BAD
:102F90001B68D31A024D44682D682C44A36030BDD1
:102FA0003C00002040000020440000202DE9F04FAC
:102FB00085B00D469C46DDE90F740E9B04F0400879
:102FC000B8F1000F02D0DFF8688101E0DFF864811A
:102FD000CDF8008004F01008B8F1000F01D024F003
:102FE000010404F00108B8F1000F02D04FF03008DE
:102FF00001E04FF02008C246002604F00208B8F1B4
:10300000000F11D0002A02DA2D2652420CE004F003
:103010000408B8F1000F01D02B2605E004F00808E1
:10302000B8F1000F00D02026002142B94FF0300B3C
:103030008846491C0DF1040909F808B01DE01AE0A2
:10304000E146B9F10A0F08D14FF00A0BB2FBFBFEC3
:103050000BFB1E28B2FBFBF202E002F00F08120984
:1030600000BFDDF8009019F808B08846491C0DF142
:10307000040909F808B0002AE2D1B94200DD0F4680
:10308000DB1B04F01108B8F1000F10D116B1002BB2
:1030900000DD5B1E06E0A84203D84FF0200880F850
:1030A0000080401CB3F10008A3F10103F3DC26B15A
:1030B000A84201D806705B1E401C04F01008B8F14D
:1030C000000F0AD104E0A84201D880F800A0401CFB
:1030D000B3F10008A3F10103F5DC06E0A84203D830
:1030E0004FF0300880F80080401CB8467F1E8845AD
:1030F000F4DC08E0A84205D80DF1040818F80180B6
:1031000080F80080401CB1F10008A1F10101F1DC60
:1031100006E0A84203D84FF0200880F80080401C49
:10312000B3F10008A3F10103F3DC05B0BDE8F08FB3
:1031300057480008464800081CB514200A214FF4DF
:1031400000630022CDE90010044905A000F023FE31
:103150000446204600F034FF1CBD0000252F000867
:103160006D61696E0000000010B5044C02E020683B
:103170008047241D02488442F9D310BD68490008E5
:103180006C49000810B5044C02E020688047241DFB
:1031900002488442F9D310BD6C4900087049000808
:1031A00010B5FDF761F8044604480088401C00B2E1
:1031B000024908802046FDF75BF810BDA4000020FE
:1031C00010B5FDF751F804460B480088401E00B2C8
:1031D000094908800846B0F90000002807DC0020F3
:1031E00008802046FDF744F800F09AFB02E02046F4
:1031F000FDF73EF810BD0000A400002070B50546A4
:1032000005B970BD16480068854203D315480068AB
:10321000854200D3F5E7A5F10C044FF0FF311248C9
:1032200000F03AFC002060804FF4F55020800F48F9
:103230000068844201D20D48046009496068096849
:10324000611A401A0A490968081A094908602046A3
:10325000FFF770FE044800F002FC00BFD1E7000059
:103260003C000020400000204C32002044000020A0
:103270004C000020004870474C1000200048704768
:103280004C30002070B5FEF7FBF9114800684FF490
:10329000FA71B0FBF1F42046FFF708FC01200D495C
:1032A0000870FFF7C7FC4FF4A060FDF74BFD4FF42B
:1032B000E13001F0EDF9FFF757FFFFF7DFFF0446BC
:1032C000FFF7D8FF0546214600F09CFC70BD0000CA
:1032D00000000020CC00002010B5044600F0D2F819
:1032E00019E020780A280AD10D210E48FEF77CFB50
:1032F00000BF80210B48FEF7B1FA0028F9D014F87E
:10330000011B0848FEF770FB00BF80210548FEF74F
:10331000A5FA0028F9D020780028E2D100F0C2F800
:1033200010BD0000004C004070B50446194800680C
:1033300038B12046174909688847054605B970BD68
:1033400000BF15A0E16900F005F917A0A16900F020
:1033500001F919A0616900F0FDF81BA0216900F0D6
:10336000F9F81DA0E16800F0F5F81FA0A16800F0D1
:10337000F1F821A0616800F0EDF823A0216800F0C9
:10338000E9F800F0F5FD0546294623A000F0E2F833
:1033900000BFFEE7340000207073723A20307825B9
:1033A0003038780A000000002070633A2030782519
:1033B0003038780A00000000206C723A20307825FE
:1033C0003038780A000000007231323A2030782517
:1033D0003038780A000000007230333A2030782507
:1033E0003038780A000000007230323A20307825F8
:1033F0003038780A000000007230313A20307825E9
:103400003038780A000000007230303A20307825D9
:103410003038780A000000006861726420666175C7
:103420006C74206F6E207468726561643A20257335
:103430000A000000F0B504460D461646301D20F087
:10344000070044380146002203E00D4F41F8227086
:10345000521C112AF9D34D624FF0000CC1F828C05C
:10346000C1F82CC0C1F830C0C1F834C08B63CC6344
:103470004FF0807CC1F840C000270F60F0BD000015
:10348000EFBEADDE10B5FCF7EFFE04460448007851
:10349000401C034908702046FCF7EAFE10BD0000FE
:1034A0003800002010B5FCF7DFFE04460448007821
:1034B000401E034908702046FCF7DAFE10BD0000EC
:1034C0003800002070B504462068A0F11405284695
:1034D00000F032FD002070BD2DE9F04105460C469C
:1034E0009046204600F082FDB8F1000F03D0B8F1FD
:1034F000010F23D105E004F11401284600F060F823
:103500001CE02E680FE0A6F1140794F8350097F838
:103510003510884206DA04F1140107F1140000F0B6
:103520004FF802E03668AE42EDD100BFAE4204D1A2
:1035300004F11401284600F043F800BF00BF00204A
:10354000BDE8F08110B5044604F1140000F01AF84B
:10355000002010BD0FB438B505A800907F210848A1
:10356000009B049A00F0D2FE04467F2C00D97F24F1
:103570000348FFF7B1FE0020009038BC5DF814FB53
:10358000CC310020406000607047406000607047B0
:103590004060006070470268516002680A60016024
:1035A000486070470268516002680A6001604860C4
:1035B00070470268516002680A60016048607047A5
:1035C0004268116042684A60416008607047014685
:1035D0000868884201D1012070470020FCE70146BD
:1035E0000868884201D1012070470020FCE7D0E93B
:1035F00000215160D0E90012116040600060704706
:10360000D0E900215160D0E90012116040600060F3
:10361000704700002DE9F041054615B90020BDE8CE
:10362000F081E81C20F003054E480068854201D96E
:103630000020F4E70C2D00D20C254FF0FF314A4852
:1036400000F02AFA4948006849490968461A7EE0AC
:103650004748006884196088002874D106F10C007E
:103660006168081AA8426ED306F10C006168091A55
:1036700005F11800814230D306F10C0000EB05087B
:103680003B48006800EB08074FF4F55038800020F5
:10369000788060687860BE60C4F804800120608033
:1036A0003048796800680C30814205D0304978682C
:1036B00009680844C0F808802E48016805F10C002C
:1036C00008442C4908602C4800680968884219D2CF
:1036D000284800682849086014E0012060802449D7
:1036E00060680968611A401A22490968084421493A
:1036F0000860214800680968884203D21D480068B4
:103700001D4908604FF4F550208018480068844235
:1037100012D107E015480068406815490968084457
:103720001249086011480068408828B10F480068B5
:10373000124909688842EDD10B4800F090F904F174
:103740000C006CE7FFE70A4800683044466805480B
:103750000068401BB0423FF67BAF034800F07FF9A2
:1037600000205CE7480000204C320020440000208C
:103770003C0000204C0000205000002040000020B1
:103780002DE9F0410F46164604463D463346102BC0
:1037900028D305F0030C04F003084CEA080CBCF134
:1037A000000F1FD121462A4610E052F804CB41F801
:1037B00004CB52F804CB41F804CB52F804CB41F8C7
:1037C00004CB52F804CB41F804CB103B102BECD2C5
:1037D00004E052F804CB41F804CB1B1F042BF8D2B1
:1037E0000C46154603E015F801CB04F801CB5FEA5F
:1037F000030CA3F10103F6D1BDE8F081F0B50C464E
:103800000546E6B2042A15D300F0030797B901462E
:1038100046EA062343EA034304E008C108C108C19D
:1038200008C1103A102AF8D201E008C1121F042A78
:10383000FBD20D4601E005F8016B1700A2F1010271
:10384000F9D1F0BD2DE9F04105460F460F4800EBD8
:103850000516F068FFF7DEFE044614B90020BDE847
:10386000F08125720020607208223946204600F05F
:10387000AEF9FCF7F9FC804604F10C01301DFFF7AE
:103880008AFE4046FCF7F4FC2046E8E7540000209E
:1038900070B50446FCF7E8FC054604F10C00FFF7A0
:1038A000A6FE2846FCF7E4FC2046FFF7A7FC70BD07
:1038B00070B50446FCF7D8FC054604F10C00FFF790
:1038C00096FE2846FCF7D4FC70BD00002DE9F041BF
:1038D00004460D4616460C4800EB051745F08000DF
:1038E000207208223146204600F071F9FCF7BCFC3A
:1038F000804604F10C01381DFFF74DFE4046FCF7F1
:10390000B7FCBDE8F0810000540000200146087AB1
:1039100000F0800008B1012070470020FCE70000A3
:103920002DE9F041FCF7A0FC07461648008818BBBB
:1039300015480068FFF7D2F8461E144850F83600C4
:10394000A0F1140412480068844214D011490E708A
:103950000F48056804601048007830B904F11C0174
:1039600005F11C00FCF787FC05E004F11C0105F1E2
:103970001C00FCF780FC00BF3846FCF779FCBDE872
:10398000F0810000A4000020B00000206C32002074
:10399000A8000020AC0000203800002070B50446CC
:1039A000FCF762FC0546012084F8340094F83520C9
:1039B0000A4B03EBC20004F1140142681160426833
:1039C0004A604160086000BF0549A06B0968084370
:1039D000034908602846FCF74BFC70BD6C320020A0
:1039E000B000002070B50446FCF73EFC054604F12B
:1039F0001400D0E900215160D0E90012116040604C
:103A0000006000BF94F83510094A02EBC10001685C
:103A1000814201D1012100E0002129B10548A16BBB
:103A200000688843034908602846FCF721FC70BD04
:103A30006C320020B00000202DE9F04104460D4614
:103A400016461F462A4601212046FFF73FFF204623
:103A5000FFF778FDA68367720020BDE8F08170B59E
:103A600004460025FCF700FC064604F11400FFF7AD
:103A7000AEFD28B904F11400FFF724FD012502E092
:103A8000A08B401CA0833046FCF7F2FB012D01D136
:103A9000FFF746FF002070BD73B50546FCF7E4FB59
:103AA0000646A88B002806DDA88B401EA88330465A
:103AB000FCF7DEFB28E0019828B93046FCF7D8FB7C
:103AC0006FF001007CBD00F053FA04460020206333
:103AD0006A7A214605F11400FFF7FEFC01980028E0
:103AE00009DD01AA002104F14C0000F037FB04F1CC
:103AF0004C0000F077FB3046FCF7BAFBFFF710FFF5
:103B0000206B08B1206BDDE70020DBE708B509A0DA
:103B1000FFF720FD0AA0FFF71DFD12A000230122E0
:103B20000221009012A0FFF715FD19A0FFF712FD6A
:103B300008BD00000A205C207C202F0A0000000045
:103B40002D205254202D20202020205468726561A1
:103B500064204F7065726174696E67205379737465
:103B6000656D0A004F6374203130203230313800E7
:103B7000202F207C205C202020202025642E2564FE
:103B80002E2564206275696C642025730A0000008C
:103B90002032303036202D203230313620436F70C5
:103BA0007972696768742062792072742D74687202
:103BB000656164207465616D0A00000001460A4673
:103BC00000E0521C10780028FBD1501A704770B5E5
:103BD0000346A2B118460C4600BF14F8016B00F86A
:103BE000016B3EB902E0002500F8015B551E2A007A
:103BF000F9D102E0551E2A00EFD100BF00BF1846E0
:103C000070BD00002DE9F04105460E46E81C20F08D
:103C1000030726F00308B8F1180F09D9A8F1180016
:103C2000B84205D3A8EB070018381E49086006E023
:103C3000324629461CA0FFF78DFCBDE8F0812948DB
:103C4000076004684FF4F5502080164800680C3077
:103C500060600020A06060802249606809680844B4
:103C6000214908604FF4F5500968088001201E4979
:103C7000096848800B4800680C301B490968486097
:103C8000084800680C301849096888600023012240
:103C900016A11848FFF7D0FE1248006816490860C0
:103CA00000BFCAE7480000206D656D20696E697429
:103CB0002C206572726F7220626567696E20616484
:103CC000647265737320307825782C20616E6420CF
:103CD000656E642061646472657373203078257842
:103CE0000A0000003C000020400000206865617070
:103CF000000000004C3200204400002010B50020DD
:103D00000B490880002405E00A4901EBC400FFF7D5
:103D10003CFC641C1E2CF7DB1D20074908700020AA
:103D200006490860064908600648FFF72EFC10BDEA
:103D3000A40000206C320020AC000020A80000206D
:103D4000B0000020B400002070B508480068FEF7FD
:103D5000C5FE451E064850F83500A0F1140405487C
:103D6000046004F11C00FCF7CCFA70BDB000002028
:103D70006C320020A800002010B5002405E00449A2
:103D800001EBC400FFF704FC641C002CF7D010BD4D
:103D9000BC00002070472DE9FF5F06460F469046A5
:103DA0001D46DDE90EAB31460020FFF74BFD814695
:103DB000B9F1000F03D1002004B0BDE8F09F284600
:103DC000FFF728FC044624B94846FFF761FD0020B0
:103DD000F2E743463A46314648468DE8300CFEF756
:103DE000ADFE4846E8E710B50446204600F0C6F8A8
:103DF00010BD000070B512480468FCF735FA05469E
:103E00002046FFF7EFFD042084F8340004F14C0055
:103E100000F0C0F92046FFF779FD012805D1A06F19
:103E200018B92046FFF744FD04E004F114010548E9
:103E3000FFF7B8FB2846FCF71BFAFFF771FD70BDD2
:103E4000A8000020B400002001E000F001F8FCE729
:103E500070B530E0FCF708FA0546FEF765FEE0B104
:103E600018480068A0F1140404F11400D0E90021FE
:103E70005160D0E9001211604060006000BFA06F87
:103E800010B12046A16F88472046FFF73FFD01286B
:103E900007D12846FCF7ECF970BD2846FCF7E8F995
:103EA000FAE72846FCF7E4F9A06AFFF7A7F92046ED
:103EB000FFF7EEFC00BFFEF737FE0028CAD100BFB7
:103EC000EAE70000B40000201FB520201D21C20039
:103ED000074BCDE90032CDE902100023054A06A1C7
:103EE000074800F00FF8064800F06AF81FBD000010
:103EF000CC300020493E00087469646C6500000005
:103F00004C3000202DE9FF5F05460C4616461F4643
:103F1000DDE910ABDDE90E89224600212846FFF7D6
:103F2000D5FC3B463246214628468DE8000FFEF779
:103F300005FE04B0BDE8F09F70B5044694F8340067
:103F4000022802D04FF0FF3070BDFCF78DF9054616
:103F500004F11400FFF754FB04F14C0000F0BEF92B
:103F60002846FCF785F92046FFF718FD0020EBE70F
:103F70000148006870470000A800002031B5FCF738
:103F800073F905460D480468204600F02FF86A468C
:103F9000002104F14C0000F0E1F804F14C0000F0C5
:103FA00021F92846FCF764F9FFF7BAFC206B801C66
:103FB00008B900202063002038BD0000A8000020C0
:103FC00010B504463434A0786070617801208840D0
:103FD0006060022004F834092046FFF7ADFFFFF7C8
:103FE000C7FF08B1FFF79CFC002010BD70B5044668
:103FF00094F83400012802D04FF0FF3070BDFCF778
:1040000033F90546022084F834002046FFF7EAFC25
:1040100004F14C0000F062F92846FCF729F9002071
:10402000ECE770B5044625466FF00100286305F102
:104030001400FFF7E5FA2846FFF7B0FCFFF770FC25
:1040400070BD000070B5FCF70FF905461348046811
:1040500094F8340001281CD1D4E90510814218D00D
:1040600004F11400FFF7CCFA94F835200C4B03EB65
:10407000C20004F114014268116042684A60416064
:10408000086000BF2846FCF7F3F8FFF749FC002062
:1040900070BD2846FCF7ECF80020F9E7A8000020E6
:1040A0006C320020014800687047000024000020A6
:1040B00010B50A480068401C08490860FFF758FF1F
:1040C0000446A06C401EA064A06C18B9606CA0648B
:1040D000FFF7B8FF00F004F810BD00002400002036
:1040E00070B5FFF7DFFF0546FCF7BEF8064628E08F
:1040F00019480068A0F11404A06A281A6FF0004162
:1041000088421DD22046FEF77CFDD4E9071088477F
:10411000FFF7C8FF0546607A00F0020058B1607AE8
:1041200000F0010038B1607A20F001006072204692
:1041300000F058F805E0607A20F00100607200E0BD
:1041400004E00548FFF74BFA0028D1D000BF304605
:10415000FCF78EF870BD0000BC000020034649B19A
:10416000012904D0022908D0032910D10AE0586A95
:1041700010600CE01068586209E0587A20F00200E4
:10418000587204E0587A40F00200587200BF00BF35
:104190000020704770B50446FCF766F805462046D7
:1041A000FEF72FFD2846FCF763F82046FFF780FB5B
:1041B000002070BD2DE9F84307460C4615461E4603
:1041C000DDE90889224604213846FFF77FFB434694
:1041D000324629463846CDF80090FEF7F1FCBDE89E
:1041E000F88300002DE9F8430546FCF73DF88046CA
:1041F0002846FEF706FD687A20F001006872404606
:10420000FCF736F8FFF74EFF696A0844A862FCF72E
:104210002BF880462F4F009700242AE019E05DF824
:1042200024201168142202EBC402881A826AAB6A45
:10423000D21A00D108E0826AAB6AD21A6FF000434A
:104240009A4200D20CE000BF5DF8240000684DF8EF
:1042500024005DF8240007EBC40149688842DED1E0
:1042600000BF2CB15DF824000830611C4DF821001E
:10427000641C002CD2D018480068401C1649086005
:104280000846066805F114010098FFF792F9022428
:1042900012E006F0030060B9C4F1010305F1140255
:1042A00002EBC301C4F101025DF82200FFF781F9BE
:1042B00000E003E0B608641C012CEAD900BF687A6C
:1042C00040F0010068724046FBF7D2FF0020BDE8D5
:1042D000F8830000BC000020C400002070B5044634
:1042E000607A00F0010010B94FF0FF3070BDFBF7AD
:1042F000BBFF05462046FEF784FC2846FBF7B8FFC7
:10430000607A20F0010060720020EFE72DE9FF4F96
:1043100089B0804644460A984044461E464504D229
:104320004FF0FF36A6EB08000A906FE10B9800787B
:10433000252806D0B44202D80B9800782070641C5F
:1043400061E1002526E00B98401C0B900B9800784B
:104350002D2802D145F010051CE00B9800782B2881
:1043600002D145F0040515E00B980078202802D111
:1043700045F008050EE00B980078232802D145F09F
:10438000200507E00B980078302802D145F00105A0
:1043900000E000E0D7E700BF4FF0FF370B98007850
:1043A00030380A2804D20BA800F05FF907460EE067
:1043B0000B9800782A280AD10B98401C0B900C9877
:1043C00080C80C90002F02DA7F4245F010054FF0B4
:1043D000FF390B9800782E281CD10B98401C0B90AD
:1043E0000B98007830380A2804D20BA800F03DF969
:1043F00081460AE00B9800782A2806D10B98401CC9
:104400000B900C9850F8049B0C90B9F1000F01DA56
:104410004FF00009002004900B980078682803D022
:104420000B9800786C2805D10B98007804900B98B5
:10443000401C0B900A2005900B9800786F2875D0CF
:104440000CDC632813D004DC252870D058286FD1E9
:104450008DE064286DD06928F9D18FE070286AD08A
:10446000732825D0752878D07828F0D182E005F01F
:10447000100040B904E0B44201D820202070641C30
:10448000781E071EF7DC0C9810F8041B0C90C8B2BD
:104490000790B44201D807982070641C04E0B4422D
:1044A00001D820202070641C781E071EF7DCAAE0CB
:1044B0000C98006806900C98001D0C90069808B99E
:1044C0005AA006900698FFF779FB8346B9F1000FD2
:1044D00002DDCB4500DDCB4605F0100048B904E015
:1044E000B44201D820202070641C38467F1E5845F5
:1044F000F6DC002008900BE0B44202D80698007861
:104500002070641C0698401C06900898401C089077
:1045100008985845F0DB04E0B44201D82020207010
:10452000641C38467F1E5845F6DC6CE01CE015E044
:1045300028E022E0FFE7781C10B9082745F00105C4
:10454000CDE9007902950C9804C8102331460C90EF
:104550002046FEF72BFD044655E012E0B44201D898
:1045600025202070641C4EE0082005901DE045F0D9
:10457000400500BF1020059017E000BF45F0020580
:1045800000BF12E0B44201D825202070641C0B98B3
:10459000007830B1B44202D80B9800782070641CC7
:1045A00002E00B98401E0B902DE000BF04986C2891
:1045B00007D10C9850F804AB0C9005F00200B8B18C
:1045C00016E0049868280BD10C9830F8041B1FFAE9
:1045D00081FA0C9005F0020050B10FFA8AFA07E058
:1045E0000C9850F804AB0C9005F0020000B100BF2D
:1045F000CDE900790295524631462046059BFEF7EB
:10460000D5FC044600BF0B98401C0B900B9800781B
:1046100000287FF48BAEB44201D8207001E0002066
:104620003070A4EB08000DB0BDE8F08F284E554C5B
:104630004C29000000207047002070470020704780
:1046400010B5FBF711FEFEF71DFEFFF75FFAFFF74F
:1046500093FBFFF753FBFEF76FFDFFF79BFBFFF7A5
:1046600033FCFFF771FB002010BD0146002009E07C
:104670000B685A1C0A601A7800EB800302EB4302B5
:10468000A2F130000A681278303A0A2AF0D3704753
:1046900010B588B0044601210846FCF769FB0121EA
:1046A000C804FCF775FB0320069002208DF81C005F
:1046B00000208DF81D008DF81E0001208DF81F00D0
:1046C00006A91C48FCF768FA082200211948FCF7E3
:1046D000ABFA082201211748FCF7A6FA0294002041
:1046E000ADF80C00ADF80E00ADF81000ADF81400F8
:1046F0000C20ADF8120002A90F48FDF70BF90121BB
:104700000D48FDF79FF834208DF8040002208DF845
:10471000050003208DF8060001208DF8070001A890
:10472000FCF7D4FA012240F225510348FDF7CDF8F9
:1047300008B010BD00000240004C00404FF0407037
:10474000E1EE100A704700000100020001000300C2
:10475000010002000100040001000200010003004A
:104760000100020001000500010002000100030039
:10477000010002000100040001000200010003002A
:104780000100020001000600010002000100030018
:10479000010002000100040001000200010003000A
:1047A00001000200010005000100020001000300F9
:1047B00001000200010004000100020001000300EA
:1047C00001000200010007000100020001000300D7
:1047D00001000200010004000100020001000300CA
:1047E00001000200010005000100020001000300B9
:1047F00001000200010004000100020001000300AA
:104800000100020001000600010002000100030097
:104810000100020001000400010002000100030089
:104820000100020001000500010002000100030078
:104830000100020001000400010002000100030069
:104840000100020001003031323334353637383957
:10485000616263646566003031323334353637382F
:104860003941424344454600008D971AA32E34B97E
:10487000CB465CD168E5FF721B968C01B8352FA240
:10488000D05D47CA73FEE46936BBA12C9518028F30
:10489000FD706AE75ED3C9442DA0BA378E03199420
:1048A000E66B71FC45C8D25F6CE1FB76CF4258D510
:1048B000A72A30BD0489931E77FAE06DD45943CE00
:1048C000BC312BA61F9288055AD7CD40F9746EE3F0
:1048D000911C068B32BFA52841CCD65BE26F75F8E0
:1048E0008A071D9029A4BE33D8554FC27BF6EC61D0
:1048F000139E8409B03D27AAC34E54D960EDF77AC0
:1049000008859F12AB263CB1EE6379F44DC0DA57AF
:1049100025A8B23F860B119CF57862EF56DBC14C9F
:104920003EB3A9249D100A87B43923AE179A800D8F
:104930007FF2E865DC514BC6AF2238B50C819B167F
:1049400064E9F37EC74A50DD820F159821ACB63B6F
:1049500049C4DE53EA677DF099140E833AB7AD205F
:1049600052DFC548F17C66EB394600083546000841
:104970003D46000894490008000000200C0100009A
:10498000C4010008A04A00080C010020D43C00002B
:10499000E0010008007A030A0000000000000000A7
:1049A00001020304060708090000000001020304D5
:1049B00001020304060708090000000000000000CF
:1049C00000000000000000000000000000000000E7
:1049D00000000000000000000000000000000000D7
:1049E000000000000000000000000000580000204F
:1049F0005800002080000000010000006800002036
:104A00006800002020000000020000007800002064
:104A10007800002020000000030000008800002033
:104A200088000020300000000400000098000020F2
:104A3000980000202C000000000000000000000092
:104A40000000000000000000000000000000000066
:104A50000000000000000000000000000000000056
:104A60000000000000000000000000000100000045
:104A70000000000000000000000000000000000036
:104A8000000000000000000000000000B11A000853
:104A9000F1190008FD190008F800002000000000CE
:040000050800018965
:00000001FF
